S01200005542415F365F526576322E73726563E7
S315080400000000022095330408892404088F24040870
S31508040010952404089B240408A1240408000000006D
S31508040020000000000000000000000000A7240408E7
S31508040030B524040800000000C3240408D1240408D5
S31508040040E5330408E5330408E5330408E53304080E
S31508040050E5330408E5330408E5330408E5330408FE
S31508040060E5330408DD240408E5330408ED2404080C
S315080400700125040815250408292504083D2504082E
S315080400805125040865250408E5330408E5330408FE
S31508040090E5330408E5330408E53304087925040838
S315080400A0E533040889250408E5330408E533040818
S315080400B0E5330408E5330408E5330408E53304089E
S315080400C0E5330408E5330408E5330408E53304088E
S315080400D0E53304089D250408CD250408E5330408FA
S315080400E0E5330408E5330408E5330408E53304086E
S315080400F0E5330408E5330408E5330408E53304085E
S31508040100E5330408E5330408E5330408E53304084D
S31508040110E5330408E5330408E5330408E53304083D
S31508040120E1250408E5330408E5330408E53304083F
S31508040130E5330408E5330408E5330408E53304081D
S31508040140E5330408E5330408E5330408E53304080D
S31508040150E5330408E5330408E5330408E5330408FD
S31508040160E5330408E5330408E5330408E5330408ED
S31508040170E5330408E5330408E5330408E5330408DD
S31508040180E5330408E5330408E5330408E5330408CD
S31508040190E533040800000000E5330408E5330408E1
S315080401A0E5330408E5330408E5330408E5330408AD
S315080401B0E5330408E5330408E5330408E53304089D
S315080401C0F5250408E5330408E5330408E53304088B
S30D080401D0E5330408E5330408CD
S315080401E010B5054C237833B9044B13B10448AFF35F
S315080401F000800123237010BDCC41002000000000BC
S3150804020014CD060808B5034B1BB103490348AFF3DD
S31508040210008008BD00000000D041002014CD060867
S3150804022010F8012B11F8013B012A28BF9A42F7D08E
S31508040230D01A70470000000000000000000000000B
S3150804024001F0FF01102A2BDB10F0070F08D010F875
S31508040250013B013A8B422DD010F0070F42B3F6D179
S31508040260F0B441EA012141EA014122F007047FF092
S3150804027000070023F0E80256083C85EA010586EAE9
S31508040280010685FA47F5A3FA87F586FA47F6A5FA25
S3150804029087F68EB9EED1F0BC01F0FF0102F0070231
S315080402A032B110F8013B013A83EA010313B1F8D1DC
S315080402B00020704701387047002D06BF35460338BD
S315080402C0073815F0010F07D1013015F4807F02BFF6
S315080402D0013015F4C03F0130F0BC0138704700BF47
S315080402E0034613F8012B002AFBD1181A0138704764
S315080402F081F0004102E000BF83F0004330B54FEAC5
S3150804030041044FEA430594EA050F08BF90EA020F31
S315080403101FBF54EA000C55EA020C7FEA645C7FEAC4
S31508040320655C00F0E2804FEA5454D4EB5555B8BFE7
S315080403306D420CDD2C4480EA020281EA030382EA58
S31508040340000083EA010180EA020281EA0303362DEA
S3150804035088BF30BD11F0004F4FEA01314FF4801CBD
S315080403604CEA113102D0404261EB410113F0004FCF
S315080403704FEA03334CEA133302D0524263EB430386
S3150804038094EA050F00F0A780A4F10104D5F1200E24
S315080403900DDB02FA0EFC22FA05F2801841F100017F
S315080403A003FA0EF2801843FA05F359410EE0A5F153
S315080403B020050EF1200E012A03FA0EFC28BF4CF084
S315080403C0020C43FA05F3C01851EBE37101F000453A
S315080403D007D54FF0000EDCF1000C7EEB00006EEB47
S315080403E00101B1F5801F1BD3B1F5001F0CD34908D1
S315080403F05FEA30004FEA3C0C04F101044FEA445228
S3150804040012F5800F80F09A80BCF1004F08BF5FEAAE
S31508040410500C50F1000041EB045141EA050130BD8E
S315080404205FEA4C0C404141EB0101013C28BFB1F5A0
S31508040430801FE9D291F0000F04BF01460020B1FAEB
S3150804044081F308BF2033A3F10B03B3F120020CDABE
S315080404500C3208DD02F1140CC2F10C0201FA0CF09C
S3150804046021FA02F10CE002F11402D8BFC2F1200C01
S3150804047001FA02F120FA0CFCDCBF41EA0C019040B7
S31508040480E41AA2BF01EB0451294330BD6FEA040400
S315080404901F3C1CDA0C340EDC04F11404C4F12002EB
S315080404A020FA04F001FA02F340EA030021FA04F3FD
S315080404B045EA030130BDC4F10C04C4F1200220FA54
S315080404C002F001FA04F340EA0300294630BD21FA92
S315080404D004F0294630BD94F0000F83F4801306BF58
S315080404E081F480110134013D4EE77FEA645C18BF4C
S315080404F07FEA655C29D094EA050F08BF90EA020FE3
S3150804050005D054EA000C04BF1946104630BD91EADA
S31508040510030F1EBF0021002030BD5FEA545C05D1DD
S315080405204000494128BF41F0004130BD14F580041C
S315080405303CBF01F5801130BD01F0004545F0FE4190
S3150804054041F470014FF0000030BD7FEA645C1ABFC5
S31508040550194610467FEA655C1CBF0B46024650EAFC
S31508040560013406BF52EA033591EA030F41F4002128
S3150804057030BD00BF90F0000F04BF0021704730B5AE
S315080405804FF4806404F132044FF000054FF0000183
S3150804059050E700BF90F0000F04BF0021704730B544
S315080405A04FF4806404F1320410F0004548BF404219
S315080405B04FF000013EE700BF42004FEAE2014FEA6E
S315080405C031014FEA02701FBF12F07F4393F07F4F49
S315080405D081F06051704732F07F4208BF704793F04C
S315080405E07F4F04BF41F40021704730B54FF460745F
S315080405F001F0004521F000411CE700BF50EA010262
S3150804060008BF704730B54FF000050AE050EA01020A
S3150804061008BF704730B511F0004502D5404261EB7A
S3150804062041014FF4806404F132045FEA915C3FF4BB
S31508040630D8AE4FF003025FEADC0C18BF03325FEA58
S31508040640DC0C18BF033202EBDC02C2F1200300FA09
S3150804065003FC20FA02F001FA03FE40EA0E0021FA2E
S3150804066002F11444BDE600BF70B54FF0FF0C4CF41C
S31508040670E06C1CEA11541DBF1CEA135594EA0C0FCE
S3150804068095EA0C0F00F0DEF82C4481EA030621EA09
S315080406904C5123EA4C5350EA013518BF52EA033544
S315080406A041F4801143F4801338D0A0FB02CE4FF0F6
S315080406B00005E1FB02E506F00042E0FB03E54FF026
S315080406C00006E1FB03569CF0000F18BF4EF0010E1E
S315080406D0A4F1FF04B6F5007F64F5407404D25FEA1A
S315080406E04E0E6D4146EB060642EAC62141EA5551CD
S315080406F04FEAC52040EA5E504FEACE2EB4F1FD0C0F
S3150804070088BFBCF5E06F1ED8BEF1004F08BF5FEA8C
S31508040710500E50F1000041EB045170BD06F000463E
S3150804072046EA010140EA020081EA0301B4EB5C04EB
S31508040730C2BFD4EB0C0541EA045170BD41F48011E3
S315080407404FF0000E013C00F3AB8014F1360FDEBF08
S31508040750002001F0004170BDC4F10004203C35DAE4
S315080407600C341BDC04F11404C4F1200500FA05F367
S3150804077020FA04F001FA05F240EA020001F0004208
S3150804078021F0004110EBD37021FA04F642EB06017E
S315080407905EEA430E08BF20EAD37070BDC4F10C04A8
S315080407A0C4F1200500FA04F320FA05F001FA04F26C
S315080407B040EA020001F0004110EBD37041F1000158
S315080407C05EEA430E08BF20EAD37070BDC4F1200563
S315080407D000FA05F24EEA020E20FA04F301FA05F2CB
S315080407E043EA020321FA04F001F0004121FA04F273
S315080407F020EA020000EBD3705EEA430E08BF20EA43
S31508040800D37070BD94F0000F0FD101F0004640007C
S3150804081041EB010111F4801F08BF013CF7D041EAFE
S31508040820060195F0000F18BF704703F00046520002
S3150804083043EB030313F4801F08BF013DF7D043EAD3
S315080408400603704794EA0C0F0CEA135518BF95EA89
S315080408500C0F0CD050EA410618BF52EA4306D1D110
S3150804086081EA030101F000414FF0000070BD50EA2F
S31508040870410606BF1046194652EA430619D094EAB9
S315080408800C0F02D150EA013613D195EA0C0F05D1A3
S3150804089052EA03361CBF104619460AD181EA0301F7
S315080408A001F0004141F0FE4141F470014FF00000AF
S315080408B070BD41F0FE4141F4780170BD70B54FF04A
S315080408C0FF0C4CF4E06C1CEA11541DBF1CEA1355CA
S315080408D094EA0C0F95EA0C0F00F0A7F8A4EB0504AC
S315080408E081EA030E52EA03354FEA013100F08880A3
S315080408F04FEA03334FF0805545EA131343EA12636C
S315080409004FEA022245EA111545EA10654FEA002620
S315080409100EF000419D4208BF964244F1FD0404F5D9
S31508040920407402D25B084FEA3202B61A65EB030535
S315080409305B084FEA32024FF480104FF4002CB6EBF2
S31508040940020E75EB030E22BFB61A754640EA0C0072
S315080409505B084FEA3202B6EB020E75EB030E22BFB2
S31508040960B61A754640EA5C005B084FEA3202B6EBF3
S31508040970020E75EB030E22BFB61A754640EA9C00B2
S315080409805B084FEA3202B6EB020E75EB030E22BF82
S31508040990B61A754640EADC0055EA060E18D04FEA40
S315080409A0051545EA16754FEA06164FEAC30343EAE0
S315080409B052734FEAC2025FEA1C1CC0D111F4801FAD
S315080409C00BD141EA00014FF000004FF0004CB6E7A6
S315080409D011F4801F04BF01430020B4F1FD0C88BF45
S315080409E0BCF5E06F3FF6AFAEB5EB030C04BFB6EB50
S315080409F0020C5FEA500C50F1000041EB045170BD43
S31508040A000EF0004E4EEA113114EB5C04C2BFD4EB6F
S31508040A100C0541EA045170BD41F480114FF0000EF3
S31508040A20013C90E645EA060E8DE60CEA135594EA6F
S31508040A300C0F08BF95EA0C0F3FF43BAF94EA0C0F72
S31508040A400AD150EA01347FF434AF95EA0C0F7FF4E7
S31508040A5025AF104619462CE795EA0C0F06D152EA3B
S31508040A6003353FF4FDAE1046194622E750EA41061F
S31508040A7018BF52EA43067FF4C5AE50EA41047FF430
S31508040A800DAF52EA43057FF4EBAE12E74FF0FF3C95
S31508040A9006E000BF4FF0010C02E000BF4FF0010C66
S31508040AA04DF804CD4FEA410C7FEA6C5C4FEA430CDF
S31508040AB018BF7FEA6C5C1BD001B050EA410C0CBF2E
S31508040AC052EA430C91EA030F02BF90EA020F002090
S31508040AD0704710F1000F91EA030F58BF994208BFF7
S31508040AE090422CBFD8176FEAE37040F001007047B4
S31508040AF04FEA410C7FEA6C5C02D150EA013C07D10B
S31508040B004FEA430C7FEA6C5CD6D152EA033CD3D055
S31508040B105DF8040B704700BF8446104662468C464F
S31508040B201946634600E000BF01B5FFF7B7FF002882
S31508040B3048BF10F1000F01BD4DF808EDFFF7F4FFAB
S31508040B400CBF012000205DF808FB00BF4DF808ED36
S31508040B50FFF7EAFF34BF012000205DF808FB00BF59
S31508040B604DF808EDFFF7E0FF94BF012000205DF87B
S31508040B7008FB00BF4DF808EDFFF7CEFF94BF012030
S31508040B8000205DF808FB00BF4DF808EDFFF7C4FF29
S31508040B9034BF012000205DF808FB00BF4FEA410C72
S31508040BA07FEA6C5C02D150EA013C0AD14FEA430C55
S31508040BB07FEA6C5C02D152EA033C02D14FF0000092
S31508040BC070474FF0010070474FEA410212F50012D0
S31508040BD015D211D56FF47873B3EB625212D94FEA72
S31508040BE0C12343F0004343EA505311F0004F23FA5C
S31508040BF002F018BF404270474FF00000704750EAB1
S31508040C00013005D111F0004008BF6FF0004070476D
S31508040C104FF00000704700BF4FEA4102B2F1E043CB
S31508040C2024BFB3F5001CDCF1FE5C0DD901F0004CC1
S31508040C304FEAC0024CEA5070B2F1004F40EB830011
S31508040C4008BF20F00100704711F0804F21D113F13D
S31508040C503872BCBF01F00040704741F480114FEA76
S31508040C605252C2F11802C2F1200C10FA0CF320FAFF
S31508040C7002F018BF40F001004FEAC1234FEAD3231C
S31508040C8003FA0CFC40EA0C0023FA02F34FEA430386
S31508040C90CCE77FEA625307D150EA01331EBF4FF00F
S31508040CA0FE4040F44000704701F0004040F0FE402A
S31508040CB040F40000704700BF7BB972B90029BEBF73
S31508040CC000204FF0004106E008BF00281CBF6FF063
S31508040CD000414FF0FF3000F0BBB9ADF1080C6DE9E7
S31508040CE004CE002909DB002B1ADB00F04DF8DDF8E9
S31508040CF004E0DDE9022304B07047404261EB410198
S31508040D00002B1BDB00F040F8DDF804E0DDE90223E4
S31508040D1004B0404261EB4101524263EB430370471E
S31508040D20524263EB430300F02FF8DDF804E0DDE9F3
S31508040D30022304B0404261EB41017047524263EB1F
S31508040D40430300F021F8DDF804E0DDE9022304B0EA
S31508040D50524263EB4303704753B94AB9002908BFA3
S31508040D6000281CBF4FF0FF314FF0FF3000F070B978
S31508040D70ADF1080C6DE904CE00F006F8DDF804E0E0
S31508040D80DDE9022304B070472DE9F047089E0D46B5
S31508040D9004460F46002B4AD18A42944665D9B2FACC
S31508040DA082F343B102FA03FCC3F120029F4020FAFE
S31508040DB002F217439C404FEA1C4E1FFA8CF5B7FB08
S31508040DC0FEF1220C0EFB117742EA074201FB05F0FD
S31508040DD090420AD91CEB020201F1FF3780F01C810C
S31508040DE0904240F2198102396244121AA4B2B2FB43
S31508040DF0FEF00EFB102244EA024400FB05F5A54268
S31508040E000AD91CEB040400F1FF3280F00781A542DD
S31508040E1040F204816444023840EA0140641B00211C
S31508040E201EB1DC400023C6E90043BDE8F0878B42C7
S31508040E3008D9002E00F0ED800021C6E90005084611
S31508040E40BDE8F087B3FA83F1002949D1AB4202D34E
S31508040E50824200F2F880841A65EB030201201746E1
S31508040E60002EE2D0C6E90047DFE702B9FFDEB2FA90
S31508040E7082F3002B40F090808A1A4FEA1C471FFA27
S31508040E808CFE0121B2FBF7F507FB1520220C42EA7A
S31508040E9000420EFB05F0904208D91CEB020205F14C
S31508040EA0FF3802D2904200F2CB804546121AA4B209
S31508040EB0B2FBF7F007FB102244EA02440EFB00FEDD
S31508040EC0A64508D91CEB040400F1FF3202D2A64554
S31508040ED000F2BB801046A4EB0E0440EA05409FE7E7
S31508040EE0C1F120078B4022FA07FC4CEA030C05FAE9
S31508040EF001F420FA07F3FD404FEA1C492343B5FBE6
S31508040F00F9F81FFA8CFE09FB18551C0C44EA05442B
S31508040F1008FB0EF5A54202FA01F200FA01F00BD914
S31508040F201CEB040408F1FF3A80F08880A54240F2DD
S31508040F308580A8F102086444641B9DB2B4FBF9F3E6
S31508040F4009FB134445EA044403FB0EFEA64508D9E7
S31508040F501CEB040403F1FF356CD2A6456AD9023B9F
S31508040F60644443EA0843A3FB0295A4EB0E04AC428B
S31508040F70C846AE4656D353D056B1B0EB080264EB16
S31508040F800E0404FA07F7CA40CC401743C6E90074AE
S31508040F9018460021BDE8F087C3F1200102FA03FCD4
S31508040FA020FA01F225FA01F19D402A434FEA1C472B
S31508040FB01FFA8CFEB1FBF7F007FB1015110C41EA7A
S31508040FC0054100FB0EF58D4204FA03F408D91CEB1F
S31508040FD0010100F1FF382FD28D422DD90238614420
S31508040FE0491B92B2B1FBF7F507FB151142EA014218
S31508040FF005FB0EF1914208D91CEB020205F1FF38F4
S3150804100016D2914214D9023D6244521A45EA004165
S3150804101038E73146304608E73946E6E61046FBE641
S315080410204845A9D2B9EB020865EB0C0E013BA3E7C8
S315080410304546EAE72B4694E74046D1E7D0467BE7A0
S31508041040023D624432E708460AE76444023842E746
S31508041050704700BF80B58CB000AF07F124030022A7
S315080410601A605A609A603B1D20220021184627F010
S31508041070B1FD5D4B4FF0A0421A605B4B4FF4403212
S315080410805A60594B00229A60574B0022DA60564B35
S3150804109000221A61544B01225A61534B08229A6161
S315080410A0514B00221A77504B01225A774E4B06228F
S315080410B01A624D4B002283F824204B4B0022DA6235
S315080410C0494B00221A63484B002283F83820464BC2
S315080410D04FF48052DA63444B002283F84020424896
S315080410E002F07CFC0346002B01D000F083FF0023AA
S315080410F07B6207F1240319463B4803F09BFD03462C
S31508041100002B01D000F076FF384B7B600623BB60CA
S315080411100623FB607F233B6104237B610023BB61B9
S315080411203B1D1946304802F007FF0346002B01D041
S3150804113000F060FF2E4B7B600C23BB600423FB602E
S315080411403B1D1946284802F0F7FE0346002B01D03A
S3150804115000F050FF274B7B601223BB603B1D1946EA
S31508041160214802F0E9FE0346002B01D000F042FFB5
S31508041170214B7B601823BB603B1D19461A4802F0B5
S31508041180DBFE0346002B01D000F034FF1B4B7B60CB
S315080411904FF48073BB603B1D1946134802F0CCFE1E
S315080411A00346002B01D000F025FF154B7B604FF456
S315080411B08373BB600623FB603B1D19460A4802F08D
S315080411C0BBFE0346002B01D000F014FF7F2106481E
S315080411D003F0CEFC0346002B01D000F00BFF00BF42
S315080411E03037BD4680BD00BFE84100200200300408
S315080411F004006008000180218000501D4000201969
S315080412000010603280B588B000AF3B46202200212A
S31508041210184627F0DFFC604B604A1A605E4B4FF4B1
S3150804122040325A605C4B00229A605B4B0022DA60BB
S31508041230594B00221A61584B01225A61564B08220F
S315080412409A61554B00221A77534B01225A77524B0F
S3150804125006221A62504B002283F824204E4B0022A1
S31508041260DA624D4B00221A634B4B002283F838206E
S31508041270494B4FF48052DA63474B012283F84020E6
S31508041280454B0C225A64444B80229A64424B0022F2
S31508041290DA64414B01221A653F4802F09FFB034674
S315080412A0002B01D000F0A6FE3D4B3B6006237B6075
S315080412B00623BB607F23FB6004233B6164237B61B5
S315080412C04FF08073BB613B461946334802F034FE3F
S315080412D00346002B01D000F08DFE324B3B600C23F5
S315080412E07B6032237B613B4619462B4802F024FE79
S315080412F00346002B01D000F07DFE2B4B3B601223E6
S315080413007B600423BB6000237B613B461946224865
S3150804131002F012FE0346002B01D000F06BFE234BAD
S315080413203B6018237B603B4619461B4802F004FEC3
S315080413300346002B01D000F05DFE1D4B3B604FF4C5
S3150804134080737B600623BB603B461946124802F04D
S31508041350F3FD0346002B01D000F04CFE154B3B6011
S315080413604FF483737B600423BB603B4619460A48E3
S3150804137002F0E2FD0346002B01D000F03BFE7F217C
S31508041380054803F0F5FB0346002B01D000F032FEB6
S3150804139000BF2037BD4680BD5442002000010050DE
S315080413A00040C03A0800900C0080F03E1000C010BF
S315080413B00008302E0010603280B5A4B000AF786003
S315080413C007F17C0300221A605A609A60DA601A618F
S315080413D007F1280354220021184627F0FBFB7B68F3
S315080413E01B68B3F1A04F40F0A1804FF40043BB62E1
S315080413F04FF00053FB6607F12803184606F01CFA5B
S315080414000346002B01D000F0F5FD9E4B1B68013303
S315080414109C4A13609B4B1B68012B0BD19A4BDB6CC4
S31508041420994A43F40053D364974BDB6C03F4005393
S315080414307B627B6A944BDB6C934A43F00403D36464
S31508041440914BDB6C03F004033B623B6A8E4BDB6C0B
S315080414508D4A43F00103D3648B4BDB6C03F0010321
S31508041460FB61FB69884BDB6C874A43F00203D36450
S31508041470854BDB6C03F00203BB61BB690723FB677F
S315080414800323C7F880300023C7F8843007F17C03A8
S3150804149019467E4804F0BCFB0323FB670323C7F8FD
S315080414A080300023C7F8843007F17C0319464FF0CF
S315080414B0904004F0ADFB0223FB670323C7F8803092
S315080414C00023C7F8843007F17C031946704804F0F2
S315080414D09FFB704B704A1A606E4B05225A606D4B1F
S315080414E000229A606B4B0022DA606A4B80221A61EA
S315080414F0684B4FF480725A61664B4FF480629A6166
S31508041500644B0022DA61634B4FF400521A62614855
S3150804151004F040F80346002B01D000F06BFD7B680D
S315080415205C4A5A655B4A7B689362A6E07B681B68DB
S315080415305A4A934240F0A1804FF40043BB624FF0ED
S315080415400053FB6607F12803184606F075F90346A7
S31508041550002B01D000F04EFD4A4B1B680133494A63
S315080415601360484B1B68012B0BD1474BDB6C464A6F
S3150804157043F40053D364444BDB6C03F400537B619C
S315080415807B69414BDB6C404A43F00103D3643E4B11
S31508041590DB6C03F001033B613B693B4BDB6C3A4A6A
S315080415A043F00403D364384BDB6C03F00403FB6099
S315080415B0FB68354BDB6C344A43F00203D364324B85
S315080415C0DB6C03F00203BB60BB68C023FB67032321
S315080415D0C7F880300023C7F8843007F17C0319461E
S315080415E04FF0904004F014FB2023FB670323C7F84D
S315080415F080300023C7F8843007F17C031946234852
S3150804160004F006FB48F60403FB670323C7F8803097
S315080416100023C7F8843007F17C0319461C4804F0F4
S31508041620F7FA1F4B1F4A1A601D4B24225A601C4B9B
S3150804163000229A601A4B0022DA60194B80221A613A
S31508041640174B4FF480725A61154B4FF480629A61B6
S31508041650134B0022DA61124B4FF480521A62104877
S3150804166003F098FF0346002B01D000F0C3FC7B6807
S315080416700B4A5A650A4A7B68936200BF9037BD468F
S3150804168080BD00BF804300200010024000080048C7
S3150804169000040048C042002008000240000100502F
S315080416A0204300204400024080B58CB000AF3B467E
S315080416B030220021184627F08DFA1B4B1B4A1A6064
S315080416C0194803F0CEFC0346002B01D000F092FC27
S315080416D002233B6000233B7100237B710023BB601C
S315080416E00023FB6000233B6102237B610123BB616A
S315080416F00023FB613B46002219460B4803F090FD84
S315080417000346002B01D000F075FC3B46102219460F
S31508041710054803F085FD0346002B01D000F06AFC5A
S3150804172000BF3037BD4680BD844300200008005002
S3150804173080B58AB000AF786007F1140300221A60F6
S315080417405A609A60DA601A617B681B68154A934284
S3150804175024D1154BDB6C144A43F48033D364124BFF
S31508041760DB6C03F480333B613B690F4BDB6C0E4A3D
S3150804177043F00103D3640C4BDB6C03F00103FB60F9
S31508041780FB6830237B610323BB610023FB6107F1FC
S31508041790140319464FF0904004F03AFA00BF28376C
S315080417A0BD4680BD000800500010024080B584B0D4
S315080417B000AF384B9B6C374A43F004039364354BAC
S315080417C09B6C03F00403FB60FB68324B9B6C314A49
S315080417D043F0010393642F4B9B6C03F00103BB6036
S315080417E0BB682C4B9B6C2B4A43F002039364294B2E
S315080417F09B6C03F002037B607B68002201210B20AB
S3150804180003F0FBFB0B2003F012FC002200210C2042
S3150804181003F0F3FB0C2003F00AFC002200210D2040
S3150804182003F0EBFB0D2003F002FC002200210E203E
S3150804183003F0E3FB0E2003F0FAFB002200210F203D
S3150804184003F0DBFB0F2003F0F2FB0022002110203B
S3150804185003F0D3FB102003F0EAFB00220021112039
S3150804186003F0CBFB112003F0E2FB00220021382011
S3150804187003F0C3FB382003F0DAFB002200216020C2
S3150804188003F0BBFB602003F0D2FB00BF1037BD4654
S3150804189080BD00BF0010024080B58CB000AF07F1D0
S315080418A01C0300221A605A609A60DA601A618C4B2B
S315080418B0DB6C8B4A43F00403D364894BDB6C03F07B
S315080418C00403BB61BB69864BDB6C854A43F0200382
S315080418D0D364834BDB6C03F020037B617B69804B09
S315080418E0DB6C7F4A43F00103D3647D4BDB6C03F066
S315080418F001033B613B697A4BDB6C794A43F002038B
S31508041900D364774BDB6C03F00203FB60FB68744B10
S31508041910DB6C734A43F01003D364714BDB6C03F03E
S315080419201003BB60BB686E4BDB6C6D4A43F008035F
S31508041930D3646B4BDB6C03F008037B607B68002283
S315080419400321684804F0FEFA00224FF40141664870
S3150804195004F0F8FA002241F21041644804F0F2FA5D
S31508041960002240F20671624804F0ECFA00224FF4B1
S315080419701061604804F0E6FA01224FF400715D48EC
S3150804198004F0E0FA0323FB6101233B6200237B6234
S315080419900023BB6207F11C031946524804F038F9C0
S315080419A00823FB614FF444133B6201237B6207F16E
S315080419B01C0319464F4804F02BF98023FB610023C6
S315080419C03B6200237B6207F11C031946464804F070
S315080419D01FF94FF48073FB6101233B6200237B628A
S315080419E00023BB6207F11C0319463F4804F010F9AB
S315080419F04FF40043FB6101233B6200237B6203230C
S31508041A00BB6207F11C031946374804F001F941F291
S31508041A101043FB6101233B6200237B620023BB6204
S31508041A2007F11C031946314804F0F2F840F2027330
S31508041A30FB6101233B6200237B620023BB6207F13F
S31508041A401C0319462A4804F0E3F84FF43063FB6193
S31508041A5001233B6200237B620023BB6207F11C035C
S31508041A601946244804F0D4F80123FB6100233B6299
S31508041A7000237B6207F11C0319461D4804F0C8F8C5
S31508041A800423FB6101233B6200237B620323BB62BD
S31508041A9007F11C031946164804F0BAF84FF4007304
S31508041AA0FB614FF444133B6200237B6207F11C037A
S31508041AB019460E4804F0ACF800220121092003F067
S31508041AC09CFA092003F0B3FA00220121172003F037
S31508041AD094FA172003F0ABFA00BF3037BD4680BD31
S31508041AE00010024000140048001000480004004892
S31508041AF0000C00480008004880B500AF1B4B1C4A80
S31508041B001A601A4B1B4A5A60184B00229A60174BE4
S31508041B100122DA60154B00221A61144B00225A611D
S31508041B20124B00229A61114B0022DA610F4B0022F4
S31508041B301A620E4804F036FA0346002B01D000F068
S31508041B4059FA0021094804F07DFF0346002B01D009
S31508041B5000F050FA0021054804F0BFFF0346002BA5
S31508041B6001D000F047FA00BF80BD00BF98430020AB
S31508041B7000780040F2A6E11080B500AF1B4B1C4A62
S31508041B801A601A4B1B4A5A60184B00229A60174B64
S31508041B900122DA60154B00221A61144B00225A619D
S31508041BA0124B00229A61114B0022DA610F4B002274
S31508041BB01A620E4804F0F6F90346002B01D000F029
S31508041BC019FA0021094804F03DFF0346002B01D009
S31508041BD000F010FA0021054804F07FFF0346002BA5
S31508041BE001D000F007FA00BF80BD00BFEC43002017
S31508041BF000840040F2A6E11080B5A2B000AF786078
S31508041C0007F1740300221A605A609A60DA601A614E
S31508041C1007F1200354220021184626F0DBFF7B68CF
S31508041C201B685E4A934259D14FF480733B62002382
S31508041C307B6407F12003184605F0FEFD0346002BD6
S31508041C4001D000F0D7F9564BDB6C554A43F0010333
S31508041C50D364534BDB6C03F00103FB61FB69504B04
S31508041C60DB6C4F4A43F00203D3644D4BDB6C03F041
S31508041C700203BB61BB694FF480737B671223BB679E
S31508041C800023FB670023C7F880300223C7F8843093
S31508041C9007F1740319464FF0904003F0B9FF202367
S31508041CA07B671223BB670023FB670023C7F88030D2
S31508041CB00823C7F8843007F174031946394803F032
S31508041CC0A7FF374B9B6D364A43F080439365344BE5
S31508041CD09B6D03F080437B617B695BE07B681B68D3
S31508041CE0314A934256D14FF400333B620023BB6416
S31508041CF007F12003184605F09FFD0346002B01D083
S31508041D0000F078F9264BDB6C254A43F00403D364C8
S31508041D10234BDB6C03F004033B613B69204BDB6C10
S31508041D201F4A43F00203D3641D4BDB6C03F0020322
S31508041D30FB60FB6840237B671223BB670023FB67B2
S31508041D400023C7F880300823C7F8843007F17403E2
S31508041D501946164803F05CFF80237B671223BB678A
S31508041D600023FB670023C7F880300323C7F88430B1
S31508041D7007F1740319460B4803F04AFF084BDB6D59
S31508041D80074A43F00203D365054BDB6D03F00203F0
S31508041D90BB60BB6800BF8837BD4680BD007800407D
S31508041DA0001002400004004800840040000800486F
S31508041DB080B586B000AF01F016FB00F097F8FFF780
S31508041DC06BFDFFF7F3FCFFF745F9FFF71BFAFFF77F
S31508041DD06BFCFFF791FEFFF7CFFE00F0E9F900F080
S31508041DE025FA0BF017F90346002B01D000F002F987
S31508041DF001F02AF900F0E4FC01F0D6F800F018FE28
S31508041E0000F018F900F09CFD0A2001F05DFB0022A1
S31508041E104FF480712B4804F095F824F0C1F90A2090
S31508041E2001F052FB24F056FF25F078FB0BF07CFEFC
S31508041E30C82001F049FB1EF047F8234815F0A4F919
S31508041E400A2001F041FB00237B607B6901337B6137
S31508041E501EF0B0FB00237B61BB680133BB601B48E3
S31508041E600BF06AFE1A4820F041FF0023BB603B6969
S31508041E7001333B61174815F0F7FF00233B61FB6804
S31508041E800133FB60144824F093F8144824F090F8BE
S31508041E900023FB607A68531C7B60114B83FB023179
S31508041EA0D317C91A0B465B000B44D11A0029CCD1A7
S31508041EB00C4820F00BFD0C4820F008FD00237B603D
S31508041EC0C3E700BF000C00482C4C00202C0000205F
S31508041ED038A70020444C0020282900202C2B002059
S31508041EE056555555504C0020684F002080B59AB079
S31508041EF000AF07F1300338220021184626F06AFE9F
S31508041F0007F11C0300221A605A609A60DA601A61A3
S31508041F103B1D00221A605A609A60DA601A615A6197
S31508041F20002004F0A7FE04F025FE314BD3F89030C8
S31508041F302F4A23F01803C2F8903006233B63012383
S31508041F40BB634FF48073FB6340233B640223FB6447
S31508041F5002233B6504237B655523BB650223FB6586
S31508041F6002233B6602237B6607F13003184604F016
S31508041F7035FF0346002B01D000F03CF80F23FB6124
S31508041F8003233B6200237B624FF48063BB624FF4F6
S31508041F908063FB6207F11C030421184605F030FA36
S31508041FA00346002B01D000F025F8114B9B6D104A0F
S31508041FB043F4807393650E4B9B6D03F480733B6007
S31508041FC03B6800237B604FF08053BB600023FB60B3
S31508041FD040F2B7533B6122237B612023BB613B1D3F
S31508041FE0184605F077FE00BF6837BD4680BD00BFBA
S31508041FF00010024080B500AF102025F061FE0346AC
S31508042000002B0BD025F0F2FD0649074825F0B6FD4E
S31508042010064825F0B3FD064825F0B0FD72B600BFA4
S31508042020FEE700BF30CD060838CD060840CD0608C1
S315080420306CCD060880B586B000AF3B1D00221A6039
S315080420405A609A60DA601A6100233B60374B384A53
S315080420501A60364B00225A60344B7F229A60334BFF
S31508042060FF22DA60314B00221A61304B00225A6192
S315080420702E4B00229A612D4B4FF08042DA612B4B8E
S3150804208000221A62294805F067FE0346002B01D090
S31508042090FFF7B0FF274BD3F8943003F00063002B07
S315080420A006D1244BD3F8943003F08063002B08D070
S315080420B001211E4806F08EF9034641F23522934261
S315080420C030D000233B7100237B710023BB710023AE
S315080420D0BB6000233B6100237B613B1D012219463B
S315080420E0124805F0B8FE0346002B01D0FFF782FF1D
S315080420F001233B7001237B700123BB700023FB7013
S315080421003B4601221946094805F09EFF0346002B63
S3150804211001D0FFF76FFF41F235220121034806F08B
S3150804212041F900E000BF1837BD4680BD4044002091
S31508042130002800400010024080B598B000AF7860CF
S3150804214007F10C0354220021184626F043FD7B6848
S315080421501B68154A934223D14FF40023FB604FF4BE
S315080421608073FB6507F10C03184605F065FB034607
S31508042170002B01D0FFF73EFF0C4BD3F890300B4AE7
S3150804218043F40043C2F89030084B9B6D074A43F466
S3150804219080639365054B9B6D03F48063BB60BB68E2
S315080421A000BF6037BD4680BD0028004000100240CD
S315080421B080B500AF1B4B1C4A1A601A4B4FF4827247
S315080421C05A60184B00229A60164B4FF4E062DA60A4
S315080421D0144B02221A61134B01225A61114B4FF414
S315080421E000729A610F4B0022DA610E4B00221A62C2
S315080421F00C4B00225A620B4B00229A62094B0722A7
S31508042200DA62084B00221A63064B00225A63054811
S3150804221006F0F6F80346002B01D0FFF7EBFE00BFE5
S3150804222080BD00BF684400200038004080B500AF78
S315080422301B4B1C4A1A601A4B4FF482725A60184B8D
S3150804224000229A60164B4FF4E062DA60144B0022BF
S315080422501A61134B00225A61114B4FF480229A617A
S315080422600F4B1022DA610E4B00221A620C4B002225
S315080422705A620B4B00229A62094B0722DA62084B10
S3150804228000221A63064B08225A63054806F0B8F872
S315080422900346002B01D0FFF7ADFE00BF80BD00BF8B
S315080422A0CC440020003C014080B58CB000AF786077
S315080422B007F11C0300221A605A609A60DA601A61F0
S315080422C07B681B684F4A934258D14F4B9B6D4E4AC5
S315080422D043F4804393654C4B9B6D03F48043BB6185
S315080422E0BB69494BDB6C484A43F00203D364464B4B
S315080422F0DB6C03F002037B617B69434BDB6C424A6C
S3150804230043F00103D364404BDB6C03F001033B61E8
S315080423103B694FF40053FB6102233B6200237B6253
S315080423200323BB620523FB6207F11C0319463748DE
S3150804233003F06EFC4FF48043FB6102233B620023E7
S315080423407B620023BB620523FB6207F11C03194663
S315080423502E4803F05DFC4FF40063FB6102233B62E5
S3150804236000237B620323BB620523FB6207F11C037C
S3150804237019464FF0904003F04BFC3EE07B681B681F
S31508042380234A934239D1204B1B6E1F4A43F4004318
S3150804239013661D4B1B6E03F40043FB60FB681A4B64
S315080423A0DB6C194A43F01003D364174BDB6C03F058
S315080423B01003BB60BB684FF40063FB6102233B62F6
S315080423C000237B620223BB620523FB6207F11C031D
S315080423D01946104803F01CFC4FF4E043FB61022342
S315080423E03B6200237B620323BB620523FB6207F17E
S315080423F01C031946074803F00BFC00BF3037BD46DB
S3150804240080BD00BF003800400010024000040048A8
S31508042410003C01400010004880B584B000AF07F1C5
S31508042420080300221A605A60164B1B6E154A43F0BD
S3150804243001031366134B1B6E03F001037B607B6871
S31508042440104B9B6D0F4A43F0805393650D4B9B6D60
S3150804245003F080533B603B680C23BB600023FB609E
S3150804246007F10803184604F095FB04F0F3FB022071
S3150804247001F04CF801F05EF804F0A0FC00BF103738
S31508042480BD4680BD0010024080B400AFFEE780B4AC
S3150804249000AFFEE780B400AFFEE780B400AFFEE706
S315080424A080B400AFFEE780B400AF00BFBD465DF858
S315080424B0047B704780B400AF00BFBD465DF8047B5B
S315080424C0704780B400AF00BFBD465DF8047B704713
S315080424D080B500AF00F0DAFF00BF80BD80B500AF5D
S315080424E0082003F047FD00BF80BD000080B500AF9B
S315080424F0024803F032FA00BF80BD00BFC042002084
S3150804250080B500AF024803F028FA00BF80BD00BFBB
S31508042510DC46002080B500AF024803F01EFA00BF6F
S3150804252080BD00BF1C46002080B500AF024803F0FA
S3150804253014FA00BF80BD00BF2043002080B500AF59
S31508042540024803F00AFA00BF80BD00BF3C470020DA
S3150804255080B500AF024803F000FA00BF80BD00BF93
S315080425607C46002080B500AF024803F0F6F900BFA8
S3150804257080BD00BFC448002080B500AF4FF400708A
S3150804258003F0F8FC00BF80BD80B500AF024807F031
S315080425906BFA00BF80BD00BF3845002080B500AF88
S315080425A0094809F09BF8084B1B68DB6903F010031C
S315080425B0102B06D1044B1B6810221A6202481DF020
S315080425C083FE00BF80BD00BF9C47002080B500AFD6
S315080425D0024809F083F800BF80BD00BF30480020D8
S315080425E080B500AF024803F0B8F900BF80BD00BF4C
S315080425F02449002080B500AF024803F0AEF900BFB5
S3150804260080BD00BF8449002080B400AF012318466A
S31508042610BD465DF8047B704780B582B000AF78602C
S31508042620396027F093FB034616221A604FF0FF33EE
S3150804263018460837BD4680BD80B582B000AF7860BD
S315080426404FF0FF317868FFF7E7FFFEE780B586B0FD
S3150804265000AFF860B9607A6000237B610AE0AFF3E3
S3150804266000800146BB685A1CBA60CAB21A707B69F4
S3150804267001337B617A697B689A42F0DB7B6818468A
S315080426801837BD4680BD80B586B000AFF860B9601E
S315080426907A6000237B6109E0BB685A1CBA601B7820
S315080426A01846AFF300807B6901337B617A697B68DE
S315080426B09A42F1DB7B6818461837BD4680BD80B45C
S315080426C083B000AF78604FF0FF3318460C37BD4629
S315080426D05DF8047B704780B483B000AF78603960D6
S315080426E03B684FF400525A60002318460C37BD461F
S315080426F05DF8047B704780B483B000AF786001232B
S3150804270018460C37BD465DF8047B704780B485B01F
S3150804271000AFF860B9607A60002318461437BD46DE
S315080427205DF8047B7047000080B586B000AF78601A
S31508042730144A154BD31A7B617B693B61134B1B689F
S31508042740002B02D1114B124A1A60104B1A687B6887
S3150804275013443A699A4207D227F0F8FA03460C2238
S315080427601A604FF0FF3309E0084B1B68FB60074B00
S315080427701A687B681344054A1360FB6818461837B9
S31508042780BD4680BD00000220000400003445002038
S31508042790D8B1002080B400AF074BD3F88830064A76
S315080427A043F47003C2F88830034B044A9A6000BFA6
S315080427B0BD465DF8047B704700ED00E000000408A0
S315080427C080B59CB000AF07F1600300221A605A6016
S315080427D09A60DA6007F1540300221A605A609A6014
S315080427E007F1380300221A605A609A60DA601A619F
S315080427F05A619A613B1D34220021184626F0EAF9EB
S315080428004D4B4E4A1A604C4B00225A604A4B2022C2
S315080428109A60494B40F2FF12DA60474B4FF4007254
S315080428201A61454B20225A61434B00229A61424859
S3150804283006F08AFB0346002B01D0FFF7DBFB4FF4B7
S3150804284080533B6607F1600319463B4807F070FB63
S315080428500346002B01D0FFF7CDFB374806F0CBFB28
S315080428600346002B01D0FFF7C5FB00237B65002335
S31508042870BB650023FB6507F1540319462E4808F087
S3150804288045FB0346002B01D0FFF7B4FB6023BB636B
S315080428902023FB6300233B6400237B640423BB647B
S315080428A00023FB6400233B6507F13803002219461D
S315080428B0214807F029FA0346002B01D0FFF79AFBB3
S315080428C007F13803042219461B4807F01DFA034684
S315080428D0002B01D0FFF78EFB174808F041FC0023B4
S315080428E07B600023BB600023FB6006233B61002357
S315080428F07B614FF40053BB610023FB6100233B62F9
S3150804290000237B624FF00073BB620023FB62002343
S315080429103B6300237B633B1D1946074808F08CFB81
S315080429200346002B01D0FFF765FB034800F04EFA77
S3150804293000BF7037BD4680BD38450020002C0140D5
S3150804294080B58EB000AF07F1280300221A605A60DA
S315080429509A60DA6007F11C0300221A605A609A60CA
S315080429603B4600221A605A609A60DA601A615A6114
S315080429709A612D4B2D4A1A602B4BA0225A602A4B7A
S3150804298000229A60284B4FF47A72DA60264B0022AA
S315080429901A61254B80229A61234806F0D5FA034624
S315080429A0002B01D0FFF726FB4FF48053BB6207F1D7
S315080429B0280319461C4807F0BBFA0346002B01D026
S315080429C0FFF718FB184806F016FB0346002B01D040
S315080429D0FFF710FB0023FB6100237B6207F11C034E
S315080429E01946114808F092FA0346002B01D0FFF75E
S315080429F001FB60233B6000237B600023BB6000234C
S31508042A003B613B4604221946074807F07DF903460D
S31508042A10002B01D0FFF7EEFA034800F0D7F900BF00
S31508042A203837BD4680BD00BF84450020000C0040F1
S31508042A3080B59CB000AF07F1600300221A605A60A3
S31508042A409A60DA6007F1540300221A605A609A60A1
S31508042A5007F1380300221A605A609A60DA601A612C
S31508042A605A619A613B1D34220021184626F0B2F8B1
S31508042A704D4B4E4A1A604C4B00225A604A4B202250
S31508042A809A60494B40F2FF12DA60474B4FF40072E2
S31508042A901A61454B20225A61434B00229A614248E7
S31508042AA006F052FA0346002B01D0FFF7A3FA4FF4B7
S31508042AB080533B6607F1600319463B4807F038FA2A
S31508042AC00346002B01D0FFF795FA374806F093FA28
S31508042AD00346002B01D0FFF78DFA00237B650023FC
S31508042AE0BB650023FB6507F1540319462E4808F015
S31508042AF00DFA0346002B01D0FFF77CFA6023BB636B
S31508042B002023FB6300233B6400237B640423BB6408
S31508042B100023FB6400233B6507F1380300221946AA
S31508042B20214807F0F1F80346002B01D0FFF762FAB3
S31508042B3007F13803042219461B4807F0E5F803464B
S31508042B40002B01D0FFF756FA174808F009FB0023B3
S31508042B507B600023BB600023FB6006233B610023E4
S31508042B607B614FF40053BB610023FB6100233B6286
S31508042B7000237B624FF00073BB620023FB620023D1
S31508042B803B6300237B633B1D1946074808F054FA48
S31508042B900346002B01D0FFF72DFA034800F016F977
S31508042BA000BF7037BD4680BDD045002000340140C3
S31508042BB080B586B000AF78607B681B68774A934215
S31508042BC06CD1774B1B6E764A43F400631366744BD9
S31508042BD01B6E03F400637B617B69724B724A1A604D
S31508042BE0704B2A225A606F4B10229A606D4B002252
S31508042BF0DA606C4B80221A616A4B4FF400725A6190
S31508042C00684B4FF400629A61664B2022DA61654B81
S31508042C104FF400521A62634802F0BCFC0346002BC8
S31508042C2001D0FFF7E7F97B685E4A5A625D4A7B681A
S31508042C3093625E4B5E4A1A605C4B2B225A605B4B6E
S31508042C4010229A60594B0022DA60584B80221A6186
S31508042C50564B4FF400725A61544B4FF400629A6112
S31508042C60524B2022DA61514B4FF400521A624F48F4
S31508042C7002F090FC0346002B01D0FFF7BBF97B68F2
S31508042C804A4A9A62494A7B689362002200211920BB
S31508042C9002F0B3F9192002F0CAF97AE07B681B68D6
S31508042CA0444A93420CD13E4B9B6D3D4A43F008037C
S31508042CB093653B4B9B6D03F008033B613B6968E0F6
S31508042CC07B681B683C4A934263D1354B1B6E344A76
S31508042CD043F400531366324B1B6E03F40053FB6034
S31508042CE0FB68364B364A1A60344B31225A60334BEA
S31508042CF010229A60314B0022DA60304B80221A6126
S31508042D002E4B4FF400725A612C4B4FF400629A61B1
S31508042D102A4B2022DA61294B4FF400521A622748BB
S31508042D2002F038FC0346002B01D0FFF763F97B68F1
S31508042D30224A5A62214A7B689362224B224A1A60C3
S31508042D40204B32225A601F4B10229A601D4B0022D8
S31508042D50DA601C4B80221A611A4B4FF400725A61CE
S31508042D60184B4FF400629A61164B2022DA61154B10
S31508042D704FF400521A62134802F00CFC0346002B67
S31508042D8001D0FFF737F97B680E4A9A620D4A7B68C9
S31508042D90936200BF1837BD4680BD00BF002C0140B2
S31508042DA0001002401C460020300002407C460020E9
S31508042DB06C000240000C004000340140DC46002050
S31508042DC01C0002403C4700205800024080B58EB0E3
S31508042DD000AF786007F1240300221A605A609A60EB
S31508042DE0DA601A617B681B68684A934258D1684B53
S31508042DF0DB6C674A43F00403D364654BDB6C03F06E
S31508042E0004033B623B6A624BDB6C614A43F0100382
S31508042E10D3645F4BDB6C03F01003FB61FB695C4B0B
S31508042E20DB6C5B4A43F00103D364594BDB6C03F058
S31508042E300103BB61BB694FF400537B620223BB6287
S31508042E400023FB6200233B6304237B6307F124030B
S31508042E501946504802F0DCFE4FF4C0637B62022335
S31508042E60BB620023FB6200233B6302237B6307F1F7
S31508042E7024031946484802F0CBFE4FF400737B62DC
S31508042E800223BB620023FB6200233B6306237B63A6
S31508042E9007F1240319464FF0904002F0B9FE70E09A
S31508042EA07B681B683D4A93421DD1394BDB6C384A13
S31508042EB043F00403D364364BDB6C03F004037B61F1
S31508042EC07B694FF480537B620223BB620023FB6257
S31508042ED000233B6301237B6307F1240319462D482A
S31508042EE002F096FE4DE07B681B682D4A934248D152
S31508042EF0274BDB6C264A43F00203D364244BDB6C72
S31508042F0003F002033B613B69214BDB6C204A43F027
S31508042F100403D3641E4BDB6C03F00403FB60FB68F9
S31508042F2001237B620223BB620023FB6200233B630B
S31508042F3004237B6307F1240319461A4802F068FE42
S31508042F404FF490637B620223BB620023FB62002377
S31508042F503B6304237B6307F1240319460D4802F0F7
S31508042F6057FE40237B620223BB620023FB620023D5
S31508042F703B6305237B6307F124031946094802F0DA
S31508042F8047FE00BF3837BD4680BD00BF002C014050
S31508042F90001002400008004800100048000C0040D9
S31508042FA0003401400004004880B500AF244B254A8C
S31508042FB01A60234B4FF4E1325A60214B00229A607F
S31508042FC01F4B0022DA601E4B00221A611C4B0C228E
S31508042FD05A611B4B00229A61194B0022DA61184B7D
S31508042FE000221A62164B00225A62154B00229A6274
S31508042FF0002300220021124809F082FE0346002B12
S3150804300001D0FEF7F7FF00210D4809F039FF034602
S31508043010002B01D0FEF7EEFF0021094809F06EFFE8
S315080430200346002B01D0FEF7E5FF054809F0EFFE3D
S315080430300346002B01D0FEF7DDFF00BF80BD00BFAD
S315080430409C4700200038014080B500AF244B254A30
S315080430501A60234B4FF4E1325A60214B00229A60DE
S315080430601F4B0022DA601E4B00221A611C4B0C22ED
S315080430705A611B4B00229A61194B0022DA61184BDC
S3150804308000221A62164B00225A62154B08229A62CB
S31508043090134B4FF400429A63114808F0DFF80346CD
S315080430A0002B01D0FEF7A6FF00210D4809F0E8FE23
S315080430B00346002B01D0FEF79DFF0021084809F0BE
S315080430C01DFF0346002B01D0FEF794FF044809F0C0
S315080430D09EFE0346002B01D0FEF78CFF00BF80BD81
S315080430E0304800200044004080B5A2B000AF7860A4
S315080430F007F1740300221A605A609A60DA601A614A
S3150804310007F1200354220021184625F063FD7B6845
S315080431101B68964A934240F0B58001233B6201231B
S315080431207B6207F12003184604F086FB0346002B4E
S3150804313001D0FEF75FFF8E4B1B6E8D4A43F4804326
S3150804314013668B4B1B6E03F48043FB61FB69884B48
S31508043150DB6C874A43F00403D364854BDB6C03F0CA
S315080431600403BB61BB69824BDB6C814A43F00103F0
S31508043170D3647F4BDB6C03F001037B617B6910230B
S315080431807B670223BB670023FB670023C7F88030ED
S315080431900723C7F8843007F174031946754802F003
S315080431A037FD4FF4A0537B670223BB670023FB67F5
S315080431B00023C7F880300723C7F8843007F174035F
S315080431C019464FF0904002F023FD6B4B6B4A1A6088
S315080431D0694B18225A60684B00229A60664B002293
S315080431E0DA60654B80221A61634B00225A61624B8E
S315080431F000229A61604B2022DA615F4B4FF44052F9
S315080432001A625D4802F0C6F90346002B01D0FEF7A0
S31508043210F1FE7B68584AC3F88020574A7B68936254
S31508043220574B584A1A60564B19225A60544B102267
S315080432309A60534B0022DA60514B80221A61504B34
S3150804324000225A614E4B00229A614D4B0022DA61E4
S315080432504B4B00221A624A4802F09CF90346002B9B
S3150804326001D0FEF7C7FE7B68454ADA67444A7B689D
S31508043270936200220021252001F0BFFE252001F0DB
S31508043280D6FE6FE07B681B683F4A93426AD10223E5
S315080432903B620023BB6207F12003184604F0CCFA0C
S315080432A00346002B01D0FEF7A5FE314B9B6D304A31
S315080432B043F4003393652E4B9B6D03F400333B6153
S315080432C03B692B4BDB6C2A4A43F00103D364284B36
S315080432D0DB6C03F00103FB60FB680C237B670223AA
S315080432E0BB670023FB670023C7F880300723C7F8AA
S315080432F0843007F1740319464FF0904002F088FCB5
S31508043300224B234A1A60214B1B225A601F4B102258
S315080433109A601E4B0022DA601C4B80221A611B4BF2
S3150804332000225A61194B00229A61184B0022DA616D
S31508043330164B4FF400521A62144802F02BF903464E
S31508043340002B01D0FEF756FE7B68104ADA670F4A4F
S315080433507B68936200220021262001F04EFE262077
S3150804336001F065FE00BF8837BD4680BD00380140C0
S315080433700010024000080048C448002080000240AB
S3150804338024490020080402400044004084490020DF
S31508043390940002400D488546FFF7FCF90C480D4990
S315080433A00D4A002302E0D458C4500433C4188C428E
S315080433B0F9D30A4A0A4C002301E013600432A242F4
S315080433C0FBD326F0C9FCFEF7F3FCFEE70000022057
S315080433D000000020CC41002074080708CC410020D6
S315080433E0D8B10020FEE780B582B000AF0023FB7198
S315080433F0032001F0F7FD002000F00EF80346002B29
S3150804340002D00123FB7101E0FFF706F8FB791846A1
S315080434100837BD4680BD000080B584B000AF78602B
S315080434200023FB73164B1B68002B22D0154B1A6816
S31508043430134B1B684FF47A71B1FBF3F3B2FBF3F346
S31508043440184601F002FE0346002B0FD17B680F2BAA
S3150804345009D8002279684FF0FF3001F0CEFD0A4AF8
S315080434607B68136007E00123FB7304E00123FB7305
S3150804347001E00123FB73FB7B18461037BD4680BD6C
S315080434800C000020040000200800002080B400AFCF
S31508043490054B1A68054B1B681344034A136000BF9F
S315080434A0BD465DF8047B7047E44900200C00002003
S315080434B080B400AF034B1B681846BD465DF8047B11
S315080434C0704700BFE449002080B584B000AF786037
S315080434D0FFF7EEFFB8607B68FB60FB68B3F1FF3F5C
S315080434E004D0094B1B68FA681344FB6000BFFFF756
S315080434F0DFFF0246BB68D31AFA689A42F7D800BFB8
S3150804350000BF1037BD4680BD0C00002080B483B0D0
S3150804351000AF7860064B1B6823F0020204497B68F7
S3150804352013430B6000BF0C37BD465DF8047B704738
S315080435303000014080B400AF054B1B68044A23F0F1
S315080435400103136000BFBD465DF8047B704700BFE6
S315080435503000014080B483B000AF786039607B687E
S315080435609B6823F47C123B681A437B689A6000BF05
S315080435700C37BD465DF8047B704780B483B000AF52
S31508043580786039607B689B6823F0E0723B681A436D
S315080435907B689A6000BF0C37BD465DF8047B7047AC
S315080435A080B483B000AF78607B689B6803F0E073EF
S315080435B018460C37BD465DF8047B704780B487B05F
S315080435C000AFF860B9607A603B60FB6860331A46FE
S315080435D0BB689B0013447B617B691A68084B1340DC
S315080435E07A6802F0F8413A680A43134343F0004202
S315080435F07B691A6000BF1C37BD465DF8047B7047BB
S3150804360000F0FF0380B485B000AF786039607B684A
S3150804361060331A463B689B001344FB60FB681B68CF
S3150804362003F0F84318461437BD465DF8047B704723
S3150804363080B487B000AFF860B9607A60FB6860331D
S315080436401A46BB689B0013447B617B691B6823F09D
S3150804365000427B681A437B691A6000BF1C37BD4663
S315080436605DF8047B704780B487B000AFF860B96032
S315080436707A60FB6860331A46BB689B0013447B6117
S315080436807B691B6823F080727B681A437B691A601E
S3150804369000BF1C37BD465DF8047B704780B487B00D
S315080436A000AFF860B9607A60FB6860331A46BB6895
S315080436B09B0013447B617B691B6823F000727B685B
S315080436C01A437B691A6000BF1C37BD465DF8047B44
S315080436D0704780B483B000AF786039607B685B69F3
S315080436E023F000423B681A437B685A6100BF0C37D3
S315080436F0BD465DF8047B704780B483B000AF78603C
S315080437007B68DB6803F44063002B01D1012300E0E6
S31508043710002318460C37BD465DF8047B704780B411
S3150804372087B000AFF860B9607A60FB6830331A4630
S31508043730BB681B0A9B0003F00C0313447B617B697B
S315080437401A68BB6803F01F031F2101FA03F3DB435E
S315080437501A407B689B0E03F01F01BB6803F01F0326
S3150804376001FA03F31A437B691A6000BF1C37BD4686
S315080437705DF8047B704780B487B000AFF860B96021
S315080437807A60FB6814331A46BB685B0E9B0003F029
S31508043790040313447B617B691A68BB681B0D03F039
S315080437A01F03072101FA03F3DB431A40BB681B0D09
S315080437B003F01F03796801FA03F31A437B691A6055
S315080437C000BF1C37BD465DF8047B704780B485B0DE
S315080437D000AFF860B9607A60FB68D3F8B020BB68BC
S315080437E0C3F31203DB431A407B6803F01803084942
S315080437F0D940BB680B40C3F312031A43FB68C3F8EA
S31508043800B02000BF1437BD465DF8047B704700BF7F
S31508043810FFFF070080B483B000AF78607B689B68BD
S3150804382003F01F0318460C37BD465DF8047B704742
S3150804383080B483B000AF78607B689B6823F020432C
S3150804384023F03F037A68936000BF0C37BD465DF8E2
S31508043850047B704780B483B000AF78607B689B684C
S3150804386003F00053B3F1005F01D1012300E0002304
S3150804387018460C37BD465DF8047B704780B483B0A0
S3150804388000AF78607B689B6823F0104323F03F03FE
S3150804389043F080527B689A6000BF0C37BD465DF8DA
S315080438A0047B704780B483B000AF78607B689B68FC
S315080438B003F08053B3F1805F01D1012300E00023B4
S315080438C018460C37BD465DF8047B704780B483B050
S315080438D000AF78607B689B6823F0004323F03F03BE
S315080438E043F001027B689A6000BF0C37BD465DF859
S315080438F0047B704780B483B000AF78607B689B68AC
S3150804390023F0004323F03F0343F002027B689A60E6
S3150804391000BF0C37BD465DF8047B704780B483B09E
S3150804392000AF78607B689B6803F00103012B01D123
S31508043930012300E0002318460C37BD465DF8047BD6
S31508043940704780B483B000AF78607B689B6803F0E7
S315080439500203022B01D1012300E0002318460C3789
S31508043960BD465DF8047B704780B483B000AF7860C9
S315080439707B689B6823F0004323F03F0343F004026B
S315080439807B689A6000BF0C37BD465DF8047B7047B8
S3150804399080B483B000AF78607B689B6803F0040347
S315080439A0042B01D1012300E0002318460C37BD4639
S315080439B05DF8047B704780B483B000AF78607B6899
S315080439C09B6803F00803082B01D1012300E00023B8
S315080439D018460C37BD465DF8047B704790B589B028
S315080439E000AF78600023FB770023FB607B68002B1D
S315080439F001D10123A9E17B685B69002B7B68DB6D38
S31508043A00002B09D17868FDF7D7FC7B6800221A6673
S31508043A107B68002283F858207B681B681846FFF7E2
S31508043A2019FF0346002B04D07B681B681846FFF76A
S31508043A30FFFE7B681B681846FFF734FF0346002B16
S31508043A4015D17B681B681846FFF718FF9C4B1B6843
S31508043A509B099C4AA2FB03239B0901335B00FB6079
S31508043A6002E0FB68013BFB60FB68002BF9D17B682D
S31508043A701B681846FFF716FF0346002B0DD17B6813
S31508043A80DB6D43F010027B68DA657B681B6E43F0D6
S31508043A9001027B681A660123FB777B681B68184654
S31508043AA0FFF776FF78617B68DB6D03F01003002B64
S31508043AB040F042817B69002B40F03E817B68DB6DD8
S31508043AC023F4817343F002027B68DA657B681B681A
S31508043AD01846FFF723FF0346002B41D17B681B6872
S31508043AE0B3F1A04F04D07B681B68774A93420FD181
S31508043AF04FF0A040FFF712FF04467348FFF70EFF86
S31508043B0003462343002B0CBF01230023DBB212E038
S31508043B106E48FFF703FF04466D48FFF7FFFE0346AA
S31508043B201C436C48FFF7FAFE03462343002B0CBFDD
S31508043B3001230023DBB2002B12D07B681B68B3F188
S31508043B40A04F04D07B681B685F4A934201D1624A3E
S31508043B5000E0624A7B685B6819461046FFF7FAFC80
S31508043B607B685B7F5A037B68DB6B1A437B68DB687D
S31508043B701A437B689B681A437B6893F824301B04B2
S31508043B801343BB617B6893F82430012B06D17B6809
S31508043B909B6A013B5B04BA691343BB617B68DB6AB6
S31508043BA0002B09D07B68DB6A03F478727B681B6B8D
S31508043BB01343BA691343BB617B681B68DA68484BCD
S31508043BC013407A681268B9690B43D3607B681B682B
S31508043BD01B6923F040617B685A6B7B681B680A4340
S31508043BE01A617B681B681846FFF7E5FE38617B692E
S31508043BF0002B7FD13B69002B7CD17B681B7F9A0302
S31508043C007B6893F838305B001343BB617B681B6899
S31508043C10DB6823F4804323F002037A681268B969DF
S31508043C200B43D3607B681B69002B17D07B681B6822
S31508043C301A697B681B6842F480321A617B681B68C0
S31508043C40D3F8C03023F47F5323F03F037A6811690D
S31508043C507A6812680B43C2F8C03013E07B681B68A5
S31508043C601A697B681B6822F480321A617B681B68B0
S31508043C70D3F8C0307A68126823F47F5323F03F03DD
S31508043C80C2F8C0307B6893F84030012B2AD17B6890
S31508043C901B681B6923F4FF6323F004037A68516CD9
S31508043CA07A68926C11437A68D26C11437A68126DF9
S31508043CB00A431A437B681B6842F001021A6119E039
S31508043CC004000020632D3E05000100500004005046
S31508043CD0000500500006005000030050000700507D
S31508043CE00740F0FF7B681B681A697B681B6822F02B
S31508043CF001021A617B685B69012B0CD17B681B681E
S31508043D001B6B23F00F017B681B6A5A1E7B681B68B2
S31508043D100A431A6307E07B681B681A6B7B681B688F
S31508043D2022F00F021A637B68DB6D23F0030343F06A
S31508043D3001027B68DA6507E07B68DB6D43F01002F5
S31508043D407B68DA650123FB77FB7F18462437BD4673
S31508043D5090BD00BF80B586B000AFF860B9607A60E0
S31508043D60FB681B68B3F1A04F04D0FB681B685A4A6A
S31508043D70934201D1594B00E0594B1846FFF74AFDC7
S31508043D803861FB681B681846FFF702FE0346002BDA
S31508043D9040F09B80FB6893F85830012B01D102232D
S31508043DA096E0FB68012283F85820FB681B684D4A95
S31508043DB0934208D03B69002B05D03B69052B02D0FA
S31508043DC03B69092B7AD1F86800F0F6FC0346FB75C3
S31508043DD0FB7D002B6DD1FB68DB6D23F4706323F048
S31508043DE0010343F48072FB68DA65FB681B683A4A88
S31508043DF0934209D0FB681B683B4A934202D0FB688E
S31508043E001B6803E0394B01E04FF0A043FA681268D7
S31508043E10934202D03B69002B05D1FB68DB6D23F482
S31508043E208012FB68DA65FB68DB6D03F48053002BAC
S31508043E3006D0FB681B6E23F00602FB681A6602E0CE
S31508043E40FB6800221A66FB685B6D294ADA62FB681E
S31508043E505B6D284A1A63FB685B6D274A5A63FB68DD
S31508043E601B681C221A60FB68002283F85820FB682A
S31508043E701B685A68FB681B6842F010025A60FB68A4
S31508043E801B68DA68FB681B6842F00102DA60FB68A3
S31508043E90586DFB681B6840331946BA687B6801F09D
S31508043EA021FC0346FB75FB681B681846FFF75CFD97
S31508043EB00DE0FB68002283F8582008E00123FB750F
S31508043EC0FB68002283F8582001E00223FB75FB7D7A
S31508043ED018461837BD4680BD00010050000300503F
S31508043EE0000700500006005000050050000400506A
S31508043EF0A34904087B4A0408974A040880B483B093
S31508043F0000AF786000BF0C37BD465DF8047B704788
S31508043F1080B483B000AF786000BF0C37BD465DF847
S31508043F20047B704780B483B000AF786000BF0C3759
S31508043F30BD465DF8047B704780B5B6B000AF7860BF
S31508043F403960002387F8D7300023FB607B6893F831
S31508043F505830012B02D1022300F013BC7B680122DE
S31508043F6083F858207B681B681846FFF711FD03463B
S31508043F70002B40F0F3837B6818683B6859683B68F4
S31508043F801B681A46FFF7CBFB7B681B681846FFF7C6
S31508043F90FFFCC7F8D0007B681B681846FFF70BFDC3
S31508043FA0C7F8CC00D7F8D030002B40F0D981D7F821
S31508043FB0CC30002B40F0D4813B689B68B3F1004FAA
S31508043FC00FD17B6818683B681B6800221946FFF7FF
S31508043FD0D2FB7B681B684FF000411846FFF779FB54
S31508043FE00EE07B6818683B6819683B689B681A4644
S31508043FF0FFF7C1FB7B681B6800211846FFF769FBBE
S315080440003B685A697B681B68DB68DB0803F00303B3
S315080440105B0002FA03F3C7F8C8303B681B69042B34
S3150804402022D07B6818683B6819693B681A68D7F810
S31508044030C830FFF7C3FA7B6818683B6819693B6898
S315080440409B691A46FFF70FFB7B6818683B68196972
S315080440503B681B7F012B02D14FF0007300E000235D
S315080440601A46FFF71BFB7BE17B681B680021184691
S31508044070FFF7C8FA0346C3F31203002B0AD17B6879
S315080440801B6800211846FFF7BDFA03469B0E03F08A
S315080440901F021EE07B681B6800211846FFF7B2FA68
S315080440A00346C7F8BC30D7F8BC3093FAA3F3C7F86D
S315080440B0B830D7F8B830C7F8C030D7F8C030002BB6
S315080440C001D1202304E0D7F8C030B3FA83F3DBB276
S315080440D01A463B681B68C3F31203002B05D13B68D9
S315080440E01B689B0E03F01F0318E03B681B68C7F8A0
S315080440F0B030D7F8B03093FAA3F3C7F8AC30D7F892
S31508044100AC30C7F8B430D7F8B430002B01D120232B
S3150804411004E0D7F8B430B3FA83F3DBB29A4206D193
S315080441207B681B68002200211846FFF781FA7B6822
S315080441301B6801211846FFF765FA0346C3F3120301
S31508044140002B0AD17B681B6801211846FFF75AFA27
S3150804415003469B0E03F01F021EE07B681B680121C1
S315080441601846FFF74FFA0346C7F8A430D7F8A43021
S3150804417093FAA3F3C7F8A030D7F8A030C7F8A83045
S31508044180D7F8A830002B01D1202304E0D7F8A830AB
S31508044190B3FA83F3DBB21A463B681B68C3F312030C
S315080441A0002B05D13B681B689B0E03F01F0318E020
S315080441B03B681B68C7F89830D7F8983093FAA3F386
S315080441C0C7F89430D7F89430C7F89C30D7F89C30A1
S315080441D0002B01D1202304E0D7F89C30B3FA83F3EB
S315080441E0DBB29A4206D17B681B6800220121184675
S315080441F0FFF71EFA7B681B6802211846FFF702FAC6
S315080442000346C3F31203002B0AD17B681B680221F9
S315080442101846FFF7F7F903469B0E03F01F021EE044
S315080442207B681B6802211846FFF7ECF90346C7F8B2
S315080442308C30D7F88C3093FAA3F3C7F88830D7F8BC
S315080442408830C7F89030D7F89030002B01D1202356
S3150804425004E0D7F89030B3FA83F3DBB21A463B6826
S315080442601B68C3F31203002B05D13B681B689B0E1E
S3150804427003F01F0316E03B681B68C7F88030D7F8BD
S31508044280803093FAA3F3FB67FB6FC7F88430D7F83B
S315080442908430002B01D1202304E0D7F88430B3FA04
S315080442A083F3DBB29A4206D17B681B68002202219B
S315080442B01846FFF7BDF97B681B6803211846FFF704
S315080442C0A1F90346C3F31203002B0AD17B681B68C2
S315080442D003211846FFF796F903469B0E03F01F02BF
S315080442E017E07B681B6803211846FFF78BF903461A
S315080442F07B677B6F93FAA3F33B673B6FBB67BB6F25
S31508044300002B01D1202303E0BB6FB3FA83F3DBB29E
S315080443101A463B681B68C3F31203002B05D13B6896
S315080443201B689B0E03F01F0311E03B681B68BB6602
S31508044330BB6E93FAA3F37B667B6EFB66FB6E002B60
S3150804434001D1202303E0FB6EB3FA83F3DBB29A426E
S3150804435006D17B681B68002203211846FFF768F913
S315080443607B681B681846FFF7D9FA0346002B40F00A
S315080443703D817B6818683B6819683B68DB681A46A0
S31508044380FFF724FA3B68DB68A24A934240F02E8181
S315080443907B6818683B681B68C3F31203002B0BD1B0
S315080443A03B681B689B0E013303F01F03092B94BF5C
S315080443B001230023DBB219E03B681B68FB65FB6D30
S315080443C093FAA3F3BB65BB6D3B663B6E002B01D129
S315080443D0202303E03B6EB3FA83F3DBB2013303F025
S315080443E01F03092B94BF01230023DBB2002B79D0CA
S315080443F03B681B68C3F31203002B07D13B681B6891
S315080444009B0E01339B0603F0F84215E03B681B68D4
S315080444103B653B6D93FAA3F3FB64FB6C7B657B6D91
S31508044420002B01D1202303E07B6DB3FA83F3DBB2BF
S3150804443001339B0603F0F8423B681B68C3F3120377
S31508044440002B09D13B681B689B0E013303F01F033D
S31508044450012101FA03F317E03B681B687B647B6C54
S3150804446093FAA3F33B643B6CBB64BB6C002B01D18E
S31508044470202303E0BB6CB3FA83F3DBB2013303F006
S315080444801F03012101FA03F342EA03013B681B688F
S31508044490C3F31203002B0AD13B681B689B0E013336
S315080444A003F01F0213465B0013441B0518E03B6820
S315080444B01B68BB63BB6B93FAA3F37B637B6BFB63DE
S315080444C0FB6B002B01D1202303E0FB6BB3FA83F3C8
S315080444D0DBB2013303F01F0213465B0013441B05CA
S315080444E00B437EE03B681B68C3F31203002B07D11A
S315080444F03B681B689B0E01339B0603F0F84215E0E4
S315080445003B681B68FB62FB6A93FAA3F3BB62BB6A4C
S315080445103B633B6B002B01D1202303E03B6BB3FACF
S3150804452083F3DBB201339B0603F0F8423B681B684E
S31508044530C3F31203002B09D13B681B689B0E013396
S3150804454003F01F03012101FA03F317E03B681B6814
S315080445503B623B6A93FAA3F3FB61FB697B627B6A62
S31508044560002B01D1202303E07B6AB3FA83F3DBB281
S31508044570013303F01F03012101FA03F342EA03019D
S315080445803B681B68C3F31203002B0DD13B681B68F9
S315080445909B0E013303F01F0213465B0013441E3BB4
S315080445A01B0543F000731BE03B681B687B617B6952
S315080445B093FAA3F33B613B69BB61BB69002B01D149
S315080445C0202303E0BB69B3FA83F3DBB2013303F0B8
S315080445D01F0213465B0013441E3B1B0543F000737E
S315080445E00B433A6892681946FFF7C5F83B681A6898
S315080445F0094B1340002B00F0BE807B681B68B3F19F
S31508044600A04F04D07B681B68044A93420AD1044B22
S3150804461009E000BF00007F40000008800001005048
S3150804462000030050594B1846FEF7BAFFC7F8C400F2
S315080446303B681B68564A934204D03B681B68554A34
S3150804464093423AD1D7F8C43003F40003002B34D18B
S315080446507B681B68B3F1A04F05D07B681B684E4A7C
S31508044660934240F085807B681B68B3F1A04F04D061
S315080446707B681B68494A934201D1494A00E0434A88
S31508044680D7F8C43043F4000319461046FEF775FFFD
S31508044690444B1B689B09444AA2FB03239B095A1CE7
S315080446A013465B0013449B00FB6002E0FB68013B76
S315080446B0FB60FB68002BF9D15AE03B681B683B4A50
S315080446C0934225D1D7F8C43003F08073002B1FD149
S315080446D07B681B68314A934204D17B681B68344A59
S315080446E0934247D07B681B68B3F1A04F04D07B681C
S315080446F01B682A4A934201D1294A00E0234AD7F87B
S31508044700C43043F0807319461046FEF736FF31E08D
S315080447103B681B68274A93422DD1D7F8C43003F463
S315080447208003002B27D17B681B681C4A934222D03E
S315080447307B681B68B3F1A04F04D07B681B68174AD3
S31508044740934201D1164A00E0104AD7F8C43043F41C
S31508044750800319461046FEF710FF0CE07B68DB6DF4
S3150804476043F020027B68DA65012387F8D73002E034
S3150804477000BF00E000BF7B68002283F8582097F842
S31508044780D7301846D837BD4680BD00BF000700504D
S31508044790000021C31000C09000060050000100501C
S315080447A00003005004000020632D3E05000052C794
S315080447B000050050000084CB80B584B000AF786053
S315080447C00023BB607B681B681846FFF7A7F80346F7
S315080447D0002B76D17B681B689A683C4B1340002BE8
S315080447E00DD07B68DB6D43F010027B68DA657B6865
S315080447F01B6E43F001027B681A66012362E07B683C
S315080448001B681846FFF762F87B681B68B3F1A04F6C
S3150804481004D07B681B682E4A934201D12D4B00E0D5
S315080448202D4B1846FEF7BCFE034603F40003002B83
S3150804483013D02A4B1B689B09294AA2FB03239B090D
S315080448405A1C13465B0013449B00BB6002E0BB681A
S31508044850013BBB60BB68002BF9D1FEF729FEF86063
S3150804486028E07B681B681846FFF758F80346002BB0
S3150804487004D17B681B681846FFF728F8FEF718FE6C
S315080448800246FB68D31A022B14D97B681B681B687B
S3150804489003F00103012B0DD07B68DB6D43F0100296
S315080448A07B68DA657B681B6E43F001027B681A66CF
S315080448B0012307E07B681B681B6803F00103012BCF
S315080448C0CFD1002318461037BD4680BD3F0000806F
S315080448D000010050000300500007005004000020A7
S315080448E0632D3E0580B584B000AF78607B681B688D
S315080448F01846FFF726F8F8607B681B681846FFF722
S315080449000DF80346002B47D0FB68002B44D17B687F
S315080449101B689B6803F00D03012B0CD17B681B688D
S315080449201846FEF7E7FF7B681B6803221A60FEF742
S31508044930BFFDB86029E07B68DB6D43F010027B6835
S31508044940DA657B681B6E43F001027B681A660123ED
S3150804495023E0FEF7ADFD0246BB68D31A022B14D931
S315080449607B681B689B6803F00103002B0DD07B68EA
S31508044970DB6D43F010027B68DA657B681B6E43F0D7
S3150804498001027B681A66012307E07B681B689B683B
S3150804499003F00103002BDCD1002318461037BD466B
S315080449A080BD80B584B000AF78607B689B6AFB6085
S315080449B0FB68DB6D03F05003002B4BD1FB68DB6D02
S315080449C043F40072FB68DA65FB681B681B6803F02E
S315080449D00803002B21D0FB681B681846FEF78CFEDB
S315080449E00346002B32D0FB681B68DB6803F40053CC
S315080449F0002B2BD1FB68DB6D23F48072FB68DA6528
S31508044A00FB68DB6D03F48053002B1FD1FB68DB6D59
S31508044A1043F00102FB68DA6518E0FB681B68DB688B
S31508044A2003F00203002B11D1FB68DB6D23F48072BB
S31508044A30FB68DA65FB68DB6D03F48053002B05D14C
S31508044A40FB68DB6D43F00102FB68DA65F868FFF77B
S31508044A5055FA0EE0FB68DB6D03F01003002B03D058
S31508044A60F868FFF75FFA04E0FB685B6D5B6B7868D0
S31508044A70984700BF1037BD4680BD80B584B000AFE7
S31508044A8078607B689B6AFB60F868FFF741FA00BFA9
S31508044A901037BD4680BD80B584B000AF78607B68AA
S31508044AA09B6AFB60FB68DB6D43F04002FB68DA65D2
S31508044AB0FB681B6E43F00402FB681A66F868FFF786
S31508044AC031FA00BF1037BD4680BD80B483B000AF4D
S31508044AD078607B689B6803F00103012B01D10123ED
S31508044AE000E0002318460C37BD465DF8047B704782
S31508044AF080B483B000AF786039607B689B6823F024
S31508044B00404323F03F033A6802F08042134343F0DC
S31508044B1000427B689A6000BF0C37BD465DF8047B8B
S31508044B20704780B483B000AF78607B689B6803F0F5
S31508044B300043B3F1004F01D1012300E000231846D6
S31508044B400C37BD465DF8047B704780B483B000AF6C
S31508044B5078607B689B6803F00403042B01D1012366
S31508044B6000E0002318460C37BD465DF8047B704701
S31508044B7080B584B000AF786039600023BB607B6879
S31508044B8093F85830012B01D102234DE07B680122AA
S31508044B9083F858207868FFF7A5FE0346FB73FB7B6A
S31508044BA0002B36D17B68DB6D23F4885323F002038C
S31508044BB043F002027B68DA657B681B683968184625
S31508044BC0FFF796FF14E0BB680133BB60BB68184A5D
S31508044BD093420DD97B68DB6D23F0120343F0100270
S31508044BE07B68DA657B68002283F8582001231BE07A
S31508044BF07B681B681846FFF794FF0346002BE2D12F
S31508044C007B68DB6D23F0030343F001027B68DA65F6
S31508044C1005E07B68DB6D43F010027B68DA657B6828
S31508044C20002283F85820FB7B18461037BD4680BD02
S31508044C3001DE040090B5A1B000AF786039600023A6
S31508044C4087F87F307B6893F85830012B01D102230B
S31508044C50E7E07B68012283F8582000237B6600235B
S31508044C60BB667B681B68B3F1A04F02D16F4BBB6070
S31508044C7009E07B681B686E4A934202D16D4BBB60A0
S31508044C8001E00023BB60BB68002B0BD17B68DB6D9E
S31508044C9043F020027B68DA657B68002283F8582093
S31508044CA00123BEE0BB681846FFF74FFFB8677B6869
S31508044CB01B681846FFF749FF0346002B40F0A080FF
S31508044CC0BB6F002B40F09C807B681B68B3F1A04F38
S31508044CD004D07B681B68554A934201D1564B00E0C1
S31508044CE0564B7B673B681B68002B4BD07B6F9B68D6
S31508044CF023F460423B6859687B6893F838305B0351
S31508044D000B431A437B6F9A607B681B68B3F1A04F09
S31508044D1004D07B681B68454A93420FD14FF0A040E4
S31508044D20FFF7D3FE04464148FFF7CFFE0346234365
S31508044D30002B0CBF01230023DBB212E03C48FFF72B
S31508044D40C4FE04463B48FFF7C0FE03461C433C48E2
S31508044D50FFF7BBFE03462343002B0CBF01230023A6
S31508044D60DBB2002B56D07B6F9B6823F4716323F068
S31508044D700F033A6811683A6892680A431A437B6FC4
S31508044D809A6047E07B6F9B6823F460427B6F9A6066
S31508044D907B681B68B3F1A04F04D07B681B68234A61
S31508044DA093420FD14FF0A040FFF78FFE04461F48E9
S31508044DB0FFF78BFE03462343002B0CBF0123002376
S31508044DC0DBB212E01A48FFF780FE04461948FFF7DB
S31508044DD07CFE03461C431A48FFF777FE0346234323
S31508044DE0002B0CBF01230023DBB2002B12D07B6FF0
S31508044DF09B6823F4716323F00F037A6F936009E0C9
S31508044E007B68DB6D43F020027B68DA65012387F84B
S31508044E107F3000E000BF7B68002283F8582097F8AB
S31508044E207F3018468437BD4690BD00BF0001005048
S31508044E30000400500005005000030050000700500D
S31508044E400006005080B485B000AF78607B6803F034
S31508044E500703FB600C4BDB68BB60BA684FF6FF03BD
S31508044E601340BB60FB681A02BB68134343F0BF6375
S31508044E7043F40033BB60044ABB68D36000BF1437ED
S31508044E80BD465DF8047B704700ED00E080B400AFD2
S31508044E90044BDB681B0A03F007031846BD465DF896
S31508044EA0047B704700ED00E080B483B000AF03468E
S31508044EB0FB7197F90730002B0BDBFB7903F01F0214
S31508044EC0074997F907305B09012000FA02F241F80D
S31508044ED0232000BF0C37BD465DF8047B704700BF2E
S31508044EE000E100E080B483B000AF03463960FB718B
S31508044EF097F90730002B0ADB3B68DAB20C4997F9B5
S31508044F0007301201D2B20B4483F800230AE03B6847
S31508044F10DAB20849FB7903F00F03043B1201D2B253
S31508044F200B441A7600BF0C37BD465DF8047B704700
S31508044F3000E100E000ED00E080B489B000AFF8605D
S31508044F40B9607A60FB6803F00703FB61FB69C3F188
S31508044F500703042B28BF0423BB61FB690433062B10
S31508044F6002D9FB69033B00E000237B614FF0FF3263
S31508044F70BB6902FA03F3DA43BB681A407B699A40B1
S31508044F804FF0FF317B6901FA03F3D9437B680B4081
S31508044F90134318462437BD465DF8047B7047000062
S31508044FA080B582B000AF78607B68013BB3F1807F3F
S31508044FB001D301230FE00A4A7B68013B53600F21A2
S31508044FC04FF0FF30FFF78EFF054B00229A60044B23
S31508044FD007221A60002318460837BD4680BD00BF5D
S31508044FE010E000E080B582B000AF78607868FFF71B
S31508044FF029FF00BF0837BD4680BD80B586B000AF1F
S315080450000346B9607A60FB73FFF740FF78617A68F4
S31508045010B9687869FFF790FF024697F90F30114689
S315080450201846FFF75FFF00BF1837BD4680BD80B539
S3150804503082B000AF0346FB7197F907301846FFF7AD
S3150804504033FF00BF0837BD4680BD80B582B000AFC8
S3150804505078607868FFF7A4FF034618460837BD4604
S3150804506080BD80B582B000AF78607B68002B01D123
S31508045070012314E07B681B79DBB2002B05D17B681E
S3150804508000225A717868FCF753FB7B6802221A716E
S315080450907B6800221A617B6801221A71002318466C
S315080450A00837BD4680BD000080B485B000AF78607F
S315080450B039607B68002B01D1012356E07B685B7954
S315080450C0012B01D1022350E07B6801225A717B68C7
S315080450D002221A717B681B6819683B6803F010037F
S315080450E001229A407B681B680A431A60224B1B6894
S315080450F09B09224AA2FB03239B090133FB6002E0B6
S31508045100FB68013BFB60FB68002BF9D13B68002B6D
S315080451100FD17B681B681B6803F03E03022B1DD165
S315080451207B681B685A687B681B6842F001025A60F0
S3150804513014E07B681B681B6803F478123B6803F069
S315080451401003022101FA03F39A4207D17B681B680C
S315080451505A687B681B6842F002025A607B6801221F
S315080451601A717B6800225A71002318461437BD4603
S315080451705DF8047B704700BF04000020632D3E05DC
S3150804518080B483B000AF786039607B68002B01D1A6
S31508045190012311E07B681B6819683B6803F0100358
S315080451A0012202FA03F3DA437B681B680A401A6091
S315080451B07B6801221A71002318460C37BD465DF830
S315080451C0047B704780B487B000AFF860B9607A6032
S315080451D03B6000237B61FB68002B01D1012318E0A7
S315080451E0FB681B68DB6BFB681B687B61BB68002B71
S315080451F005D17A697B68134408337B6104E07A69CC
S315080452007B68134414337B617B691A463B681360D5
S31508045210002318461C37BD465DF8047B704700001A
S3150804522080B58AB000AFF860B9607A600023FB776E
S31508045230FB68002B02D0BB68002B01D10123A1E136
S31508045240BB689B68042BFB685B79012B01D102239D
S3150804525098E1FB6801225A71FB6802221A71BB683D
S315080452609B68042B7AD1FEF723F9B8617B68002B77
S315080452703DD118E0FEF71CF90246BB69D31A012B87
S3150804528011D9FB681B685B6B03F40043002B0AD037
S31508045290FB681B6943F00802FB681A61FB68032272
S315080452A01A7103236EE1FB681B685B6B03F4004306
S315080452B0002BDFD1FB681B68BA68526A1A6420E0BF
S315080452C0FEF7F6F80246BB69D31A012B0FD9FB6819
S315080452D01B685B6B002B0ADAFB681B6943F0080240
S315080452E0FB681A61FB6803221A7103234AE1FB6807
S315080452F01B685B6B002BE3DBFB681B68BA68526AA6
S315080453005A64FB681B689A6C7B6803F0100340F2C6
S31508045310FF3101FA03F3DB4302EA0301BB689A6A25
S315080453207B6803F010039A40FB681B680A439A6477
S31508045330FB681B68DA6C7B6803F01003FF2101FA2B
S3150804534003F3DB4302EA0301BB68DA6A7B6803F00A
S3150804535010039A40FB681B680A43DA64BB68DB6976
S31508045360012B1DD1FB681B689B6B7B627B6803F072
S3150804537010031F2202FA03F3DB437A6A13407B62A3
S31508045380BB681B6A7B617B6803F010037A6902FABF
S3150804539003F37A6A13437B62FB681B687A6A9A6327
S315080453A0FB681B68DB6B7B627B6803F010030722D0
S315080453B002FA03F3DB437A6A13407B62BB689B6990
S315080453C0012B02D100233B620FE0BB689B69022BC9
S315080453D002D101233B6208E0BB685B69002B02D15A
S315080453E001233B6201E000233B62BB689A68BB6801
S315080453F05B6913433A6A13437B617B6803F01003C2
S315080454004FF4807202FA03F3DB437A6A13407B6231
S31508045410BB681B79012B02D14FF4807300E000238B
S315080454207A6913437B617B6803F010034FF40072B7
S3150804543002FA03F3DB437A6A13407B62BB685B793F
S31508045440012B02D14FF4007300E000237A69134359
S315080454507B617B6A23F440437B62BB681B68022B2F
S3150804546014D102F06BF938613B69484A934204D96E
S315080454707B6A43F400437B620FE03B69444A9342E8
S315080454800AD97B6A43F480437B6206E0BB681B68DF
S315080454907A6A13437B6200E000BF7B6803F010035B
S315080454A07A6902FA03F37A6A13437B62FB681B6818
S315080454B07A6ADA63FB681B6819687B6803F0100369
S315080454C04FF4804202FA03F3DA43FB681B680A4086
S315080454D01A60FB681B681B687B627B6803F0100311
S315080454E040F6FE7202FA03F3DB437A6A13407B62E0
S315080454F0BB68DB687B617B6803F010037A6902FA90
S3150804550003F37A6A13437B62FB681B687A6A1A6038
